:10000000020D30BB010CE58229F582E5833AF583C8
:10001000E0225006E92582F8E622BBFE06E92582A9
:10002000F8E222E58229F582E5833AF583E493221A
:10003000BB010689828A83E0225002E722BBFE02CE
:10004000E32289828A83E49322BB010689828A8320
:10005000F0225002F722BBFE01F322F8E0FBA3A33B
:10006000E0F925F0F0E582158270021583E0FA3898
:10007000F022EBF0A3EAF0A3E9F022D083D082F8DB
:10008000E4937012740193700DA3A393F874019319
:10009000F5828883E4737402936860EFA3A3A3805E
:1000A000DF1201671200E37E00900000EEF0A3EF84
:1000B000F090001574FFF0A37401F0A374E0F0A3B6
:1000C000EEF0A3EFF07B017A0079021208657B0164
:1000D0007A0079021201127F107E2712019212011A
:1000E000BD80C19000127401F0900012E0FFC37453
:1000F000809481501A8F807F647E0012019230B705
:1001000006900012E0FF22900012E004F080DA7FF7
:100110000022900012EBF0A3EAF0A3E9F0E4FDFC6A
:10012000900012E0FBA3E0FAA3E0F98D828C831229
:100130000003FF600A1201D70DBD00010C80E1220F
:10014000EFB40A07740D12014B740A309811A89984
:10015000B8130CC2983098FDA899C298B811F6301F
:1001600099FDC299F59922C2A0C2A1C2A212018929
:100170001201897F1012018B7F0C12018B7F0612F6
:1001800001CE7F647E000201927F301201CE7F6437
:100190007E00E4FDFCC3ED9FEE6480F8EC64809883
:1001A00050070DBD00010C80EC22D2A2E4FFFE0F2F
:1001B000BF00010EEF64324E70F5C2A2227F011221
:1001C00001CE7FF47E011201927F020201CEC2A015
:1001D000C2A18F900201AA8F90D2A0C2A10201AA4F
:0601E000563A20256400E0
:10080000E5082415F582E43400F583E0050822901C
:100810000012300703900015E475F00112005B022E
:1008200000302000E97F2ED2008018EF540F249072
:10083000D43440D4FF30040BEF24BFB41A0050036B
:100840002461FFE50960021509050CE50C7002053D
:100850000B30070E900012E475F00112005BEF02FE
:1008600000490201407403D2078003E4C207F5087F
:10087000900012120072E4F509F50BF50CE5096021
:10088000077F2012084380F5750AFFC201C200C22B
:1008900002C203C205C206C20812080FFF700D3063
:1008A00007057F00120854AF0CAE0B22B4255FC2BF
:1008B000D5C20412080FFF24D0B40A00501A75F0F4
:1008C0000A780930D50508B6FF0106C6A426F62029
:1008D000D5047002D20380D924CFB41A00EF50049B
:1008E000C2E5D204020A55D20180C6D20080C0D22D
:1008F0000280BCD2D580BAD20580B47F20120843D2
:100900002002077401B5090040F1120800FF120827
:100910004302087DD208D2068095120800FB120817
:1009200000FA120800F94A4B700679267A0B7BFF11
:1009300020022EE509602A7E008E82758300120057
:100940000360060EEE650A70F0C2D5EBC0E0EAC0A7
:10095000E0E9C0E0EE120A9CD0E0F9D0E0FAD0E085
:10096000FB120030FF60AAEBC0E0EAC0E0E9C0E0A3
:10097000120843D0E02401F9D0E03400FAD0E0FBC3
:10098000E50A0460DCD50AD980877BFF7A0A79986A
:10099000D202809C791080027908C206C2088008C1
:1009A000D2D5790A8004790AC2D5E50A047002F525
:1009B0000AE4FAFDFEFF120800FC7B082001131276
:1009C0000800FD7B1030000A120800FE120800FF2C
:1009D0007B20EC3382D592D55013C3E43000069FC0
:1009E000FFE49EFEE42001039DFDE49CFCE4CBF8C3
:1009F000C201EC700CCFCECDCCE824F8F870F380B7
:100A000017C3EF33FFEE33FEED33FDEC33FCEB3376
:100A1000FB994002FB0FD8E9EB300105F8D0E0C4A8
:100A200048B201C0E00AEC4D4E4F78207B0070C206
:100A3000EAB50A0040BCC0E0120A9ED0F0D0E02027
:100A40000104C4C0E0C4B201C0F012082CD0F0D53B
:100A5000F0EB02087D12007B091A5309945808EB49
:100A60004C08E74209984F09A04409A049090043EE
:100A700009A655098A46098A45098A470B4650083E
:100A8000EF2D08F32E09162B08F7230914200B2F3E
:100A90002A08AF480000090E3F3F3F00790AA2D55F
:100AA000200314300509B910020404B9080104A296
:100AB000D52006025001042002689202B5090050B8
:100AC00034C0E07F203003197F30A2027206720525
:100AD000500F120AF5C202C206C205C2087F30805A
:100AE0000F300503E9C0E0120843300503D0E0F9F8
:100AF000D0E0B509CC3005177F30B9100C1208438F
:100B00007F583004077F788003B908031208433008
:100B100002057F2D0208437F202008F87F2B200646
:100B2000F322920280CF286E756C6C2900D20112DC
:100B300008003001F8C201780930D50108F6020832
:100B4000AF2D504349581208002403B4050040015A
:100B5000E4900B4193120834743A120834D20375AE
:050B60000904020994E4
:0C0D3000787FE4F6D8FD7581210200A157
:00000001FF
